:020000040800F2
:10000000C80C002091010008970A00089307000817
:10001000930A000879040008EF1C000800000000A3
:10002000000000000000000000000000751400083F
:100030006906000800000000150E00088915000878
:10004000AB010008AB010008AB0100080D1200086D
:10005000AB010008AB010008AB010008AB010008D0
:10006000AB010008AB010008AB010008AB010008C0
:10007000AB010008AB010008AB010008AB010008B0
:10008000AB010008AB010008AB010008AB010008A0
:10009000AB010008AB010008AB010008AB01000890
:1000A000AB010008AB010008AB010008AB01000880
:1000B000AB010008ED15000800000000AB010008CE
:1000C000AB0100080000000000000000AB010008C8
:1000D00000000000051A0008211A000800000000B6
:1000E000AB010008AB010008AB01000800F002F80A
:1000F00000F03FF80AA090E8000C82448344AAF183
:100100000107DA4501D100F034F8AFF2090EBAE880
:100110000F0013F0010F18BFFB1A43F0010318473B
:100120003429000054290000103A24BF78C878C14F
:10013000FAD8520724BF30C830C144BF04680C60ED
:10014000704700000023002400250026103A28BF35
:1001500078C1FBD8520728BF30C148BF0B60704739
:10016000642900F07F80002070471FB51FBD10B5C7
:1001700010BD00F02EF91146FFF7F7FF01F0B0FEB9
:1001800000F04CF903B4FFF7F2FF03BC01F0BFFD30
:100190000948804709480047FEE7FEE7FEE7FEE71B
:1001A000FEE7FEE7FEE7FEE7FEE7FEE70448054957
:1001B000054A064B704700008D150008ED00000849
:1001C000C8060020C80C0020C8080020C80800206D
:1001D000704700000FB41CB5074B06AA7B44694664
:1001E0000090059800F0DDF80020694600F0ECF87A
:1001F0001CBC5DF814FB0000E90100002DE9F04192
:100200000E460446002020622046E168884730B34D
:10021000252805D0D4E901219047206A401CF2E747
:10022000E168204600278847050018D0A5F1410065
:10023000192802D820354FF4006732462946204657
:100240002760FFF78DFF40B1012804D0F61D26F08E
:1002500007060836D8E7361DD6E72846DAE7206ACB
:10026000BDE8F0812DE9F0410646002410687529AB
:10027000314616A510D0AFF30080002802DA4042C4
:1002800013A507E031688A0701D512A502E04907E6
:1002900004D511A5012401E0AFF3008000210A225A
:1002A00006F1240709E0B0FBF2FCB0FBF2F302FB1D
:1002B0001C00303078541846491C0028F3D12346DE
:1002C0002A463046BDE8F04100F00CB800000000BE
:1002D0002D0000002B000000200000007047704738
:1002E000704770472DE9F0470D46994692460446FF
:1002F00000F124080168880604D5E06921F01001A6
:10030000216000E00120A84201DD471B00E000273A
:10031000A1697A1902EB0900081AA0612078C006C9
:1003200002D42046AFF30080002608E0D4E9012182
:100330001AF806009047206A401C761C20624E4541
:10034000F4DB2078C0060AD52046AFF3008006E033
:10035000D4E9012130209047206A401C2062381ED9
:10036000A7F10107F4DC07E0D4E9012118F8050042
:100370009047206A401C2062281EA5F10105F3DC8D
:100380002046AFF300802078000602D50220BDE8A9
:10039000F0870120FBE7000001694A1C0261087830
:1003A000704700B58FB0CDE90131002105910549B5
:1003B0007944CDE9031011466846FFF71FFF0FB0DF
:1003C00000BD0000E5FFFFFF0A6802F8010B0A60AC
:1003D0007047754600F028F8AE460500694653465A
:1003E00020F00700854618B020B5FFF7DFFEBDE816
:1003F00020404FF000064FF000074FF000084FF08C
:10040000000B21F00701AC46ACE8C009ACE8C0091C
:10041000ACE8C009ACE8C0098D4670470446AFF3AC
:1004200000802046FFF7AEFE0048704764060020BB
:1004300010B5012000F040FD002000F03DFD10BD92
:1004400008B5014600200090034800900098084439
:1004500000900098008808BD006C004008B500229C
:100460000092044A0092009A02440092009A11609D
:1004700008BD0000006C004000BFFEE700F08051A6
:1004800011B10349086001E002494860704700006B
:10049000040402400000024021B1026842F001025F
:1004A000026004E002684FF6FE731A400260704773
:1004B00001684FF6FE721140016000210160416049
:1004C0008160C1604B49884208D14A49083949686E
:1004D00041F00F01474A083A51608AE0454914311A
:1004E000884208D143490839496841F0F001414A3E
:1004F000083A51607DE03F492831884208D13D49A2
:100500000839496841F470613A4A083A516070E02C
:1005100038493C31884208D136490839496841F4A4
:100520007041344A083A516063E0324950318842A0
:1005300008D130490839496841F470212D4A083AF8
:10054000516056E02B496431884208D12949083965
:10055000496841F47001274A083A516049E0254949
:100560007831884208D123490839496841F07061DF
:10057000204A083A51603CE01F49884206D1011FD9
:10058000096841F00F01021F116032E01A4914316D
:10059000884208D11849091F096841F0F001164A3C
:1005A000121F116025E014492831884208D11249F0
:1005B000091F096841F470610F4A121F116018E0A9
:1005C0000D493C31884208D10B49091F096841F4A3
:1005D0007041094A121F11600BE0074950318842EF
:1005E00007D10549091F096841F47021024A121F09
:1005F00011607047080002400804024001460020D4
:10060000002201F0805313B1054B1A6801E0054B3D
:100610001A6802EA01030BB1012000E000207047D4
:10062000000402400000024010B50022026847F6B4
:10063000F0739A430C6A8B6823430C6923434C691B
:1006400023438C692343CC6923434C6A23438C6A3C
:1006500023431A430260CB6843600B6883604B6896
:10066000C36010BD4160704770472DE9F0410246FC
:1006700000250026002000230024002791F803C055
:100680000CF00F0591F803C00CF0100CBCF1000F3A
:1006900003D091F802C04CEA050591F800C0BCF106
:1006A000000F31D0146800202BE04FF0010C0CFA41
:1006B00000F3B1F800C00CEA03069E4220D183008B
:1006C0004FF00F0C0CFA03F7BC4305FA03FC4CEA9D
:1006D000040491F803C0BCF1280F06D14FF0010CBF
:1006E0000CFA00FCC2F814C00AE091F803C0BCF197
:1006F000480F05D14FF0010C0CFA00FCC2F810C0F5
:10070000401C0828D1D31460B1F800C0BCF1FF0F21
:1007100034DD546800202EE000F1080C4FF0010891
:1007200008FA0CF3B1F800C00CEA03069E4221D18E
:1007300083004FF00F0C0CFA03F7BC4305FA03FCDF
:100740004CEA040491F803C0BCF1280F05D100F174
:10075000080C08FA0CF8C2F8148091F803C0BCF138
:10076000480F07D100F1080C4FF0010808FA0CF807
:10077000C2F81080401C0828CED35460BDE8F08138
:100780000246002093680B400BB1012000E00020DE
:10079000704700BFFEE770B5024600240025002325
:1007A0000020958A138B1B0445EA030626F07F443C
:1007B00004EA01068E4201D1012000E0002070BD54
:1007C00021B1028842F00102028004E002884FF663
:1007D000FE731A400280704700B585B001214805BC
:1007E00000F02AFB0121082000F046FB4020ADF874
:1007F000000003208DF802001C208DF803006946DC
:100800001348FFF732FF8020ADF80000694610481A
:10081000FFF72BFF0020ADF808004BF6FF70ADF896
:100820000A007820ADF80C004FF48060ADF80E009F
:100830000001ADF810000748019001A9064800F03A
:1008400043F801210448FFF7BBFF05B000BD0000DD
:10085000000C0140801A06000054004021B10288BB
:1008600042F48072028004E002884FF6FF631A406F
:100870000280704721B1028842F40072028004E0D5
:1008800002884FF6FF531A40028070470CB50246AB
:10089000002000230193009300920B0F019321F09D
:1008A0007F41019B1BB1009B1433009303E0090CB3
:1008B000009B18330093009B1B680B400BB1012079
:1008C00000E000200CBD00002DE9F04385B0044697
:1008D0000D460026B1460427DFF8CC80A6884FF6E7
:1008E000C0700640684600F0EDFADDF808802F4839
:1008F000B8FBF0F01FFA80F946EA0906A6802088C6
:100900004FF6FE7108402080002629492868884259
:100910000CD828684000B8FBF0F087B2042F00DA4A
:1009200004273E4309F10100208427E0E8884BF6C4
:10093000FF71884206D1286800EB4000B8FBF0F058
:1009400087B209E0286800EBC00101EB0010B8FB9A
:10095000F0F087B247F48047C7F30B0008B947F0BF
:10096000010747F4004006434FF4967009FB00F07E
:100970004FF47A7190FBF1F0401C2084A68320880C
:1009800040F00100208026884FF6F5300640A88808
:100990006989084306432680A8892989084320815C
:1009A00005B0BDE8F083000000127A0040420F005D
:1009B000A086010012B141F0010102E04FF6FE7382
:1009C00019400182704701827047000070B50446EB
:1009D0000D4600BF4FF400311C48FFF757FF0028B9
:1009E000F8D101211948FFF739FF00BF184917480E
:1009F000FFF7D1FE0028F9D0002278211348FFF735
:100A0000D9FF00BF13491148FFF7C5FE0028F9D0F0
:100A100021460E48FFF7D7FF00BF0E49891C0B483F
:100A2000FFF7B9FE0028F8D029460848FFF7CBFFAA
:100A300000BF0849891C0548FFF7ADFE0028F8D023
:100A400001210248FFF716FF70BD0000005400406E
:100A500001000300820007000146CA1701EB9272F1
:100A60009210A1EB820292B9642091FBF0F200FB9C
:100A7000121050B94FF4C87091FBF0F200FB121045
:100A800008B9012070470020FCE70120FAE70020A8
:100A9000F8E700BFFEE7704770B5002100230F2282
:100AA000C47804B3154C246804F4E064C4F5E0642D
:100AB000210AC1F10403CA40447804FA03F184789E
:100AC0001440214309010E4C0678A155047804F026
:100AD0001F050124AC4005786D11AD0005F1E0253E
:100AE000C5F8004109E0047804F01F050124AC407A
:100AF000044D0678761145F8264070BD0CED00E0F7
:100B000000E400E080E100E010B5002000F001F812
:100B100010BD70B50646002415E004F1B001C8B25E
:100B200001F0E7F8002001F0E4F8102001F0E1F80E
:100B3000002504E0304601F0E3F8681CC5B2802DC2
:100B4000F8DB601CC4B2082CE7DB70BD10B54FF4B5
:100B50007A7001F0FDF8AE2001F0CBF8202001F012
:100B6000C8F8102001F0C5F8B02001F0C2F8C82084
:100B700001F0BFF8002001F0BCF8102001F0B9F836
:100B8000402001F0B6F8812001F0B3F8FF2001F019
:100B9000B0F8A12001F0ADF8A62001F0AAF8A82035
:100BA00001F0A7F83F2001F0A4F8A42001F0A1F87B
:100BB000D32001F09EF8002001F09BF8D52001F031
:100BC00098F8F02001F095F8D92001F092F8222051
:100BD00001F08FF8DA2001F08CF8122001F089F88A
:100BE000DB2001F086F8202001F083F88D2001F051
:100BF00080F8142001F07DF8AF2001F07AF810BDE4
:100C000070B504460D4605F1B001C8B201F071F8A7
:100C1000102141EA141001F06CF804F00F0141F0CA
:100C2000010001F066F870BD2DE9F04706468946DF
:100C300017469A464FF0000800240025BAF1010F2C
:100C400003D0BAF1020F5ED125E020E0785D2038B4
:100C500000F0FF087E2E04DD002609F1010000F0FF
:100C6000FF0949463046FFF7CBFF002409E008EBB7
:100C70004801264A02EB4101085D01F041F8601C81
:100C8000C4B2062CF3DBB01DC6B2681CC5B2785DD9
:100C90000028DBD137E032E0785D203800F0FF0833
:100CA000782E04DD002609F1010000F0FF09494615
:100CB0003046FFF7A5FF002407E004EB0811144AB3
:100CC000505C01F01DF8601CC4B2082CF5DB09F182
:100CD0000100C1B23046FFF793FF002408E004EBA7
:100CE000081108310A4A505C01F00AF8601CC4B2CD
:100CF000082CF4DB06F10800C6B2681CC5B2785DAA
:100D00000028C9D100BF00BFBDE8F0872422000839
:100D10004C24000810B594B004460121052000F0D1
:100D2000ABF80121084600F087F80121084600F0E1
:100D300073F80120ADF84C0003208DF84E00182008
:100D40008DF84F0013A92C48FFF78FFCADF84440F5
:100D50000020ADF84000ADF84600ADF8420010A903
:100D60004FF0804000F0FCFD6020ADF83000012025
:100D7000ADF832000020ADF83600ADF838000CA90F
:100D80004FF0804000F096FD0821C80600F0DEFD1F
:100D90000121880700F050FD0121880700F05BFD6C
:100DA0001648FFF785FB1648019016480290102060
:100DB00003904FF41C700490002005908020069052
:100DC0004000079080000890002009904FF4805068
:100DD0000A9000200B9001A90848FFF725FC01228A
:100DE0005102480500F043FD01221102880500F080
:100DF0003EFD14B010BD0000000801405800024044
:100E000034000040180100200149086270470000CA
:100E100000000E427047000029B1064A52690243A1
:100E2000044B5A6104E0034A52698243014B5A6100
:100E3000704700000010024029B1064AD2690243FF
:100E4000044BDA6104E0034AD2698243014BDA6160
:100E5000704700000010024029B1064A126902439F
:100E6000044B1A6104E0034A12698243014B1A6180
:100E7000704700000010024029B1064A92690243FF
:100E8000044B9A6104E0034A92698243014B9A61E0
:100E9000704700000010024029B1064AD2680243A0
:100EA000044BDA6004E0034AD2688243014BDA6003
:100EB00070470000001002400149086070470000C0
:100EC0004004424230B500210022002400232D4D71
:100ED0006D6805F00C0121B1042905D0082923D142
:100EE00005E0294D056022E0274D05601FE0254DF6
:100EF0006D6805F47012234D6D6805F48034022589
:100F000005EB92421CB9214D554305600BE01D4D88
:100F10006D6805F400351DB11C4D5543056002E0B8
:100F2000194D5543056002E0174D056000BF00BF35
:100F3000144D6D6805F0F0010909154D6B5C0568ED
:100F4000DD4045600F4D6D6805F4E061090A104D04
:100F50006B5C4568DD4085600A4D6D6805F4605145
:100F6000C90A0B4D6B5C4568DD40C560054D6D6879
:100F700005F44041890B074D6B5CC568B5FBF3F583
:100F8000056130BD0010024000127A0000093D00EA
:100F9000020100201201002010B5014600220023AA
:100FA00000204A11012A02D1094C236806E0022AD6
:100FB00002D1074C236A01E0054C636A01F01F026D
:100FC000012494401C400CB1012000E0002010BD21
:100FD0000010024000210B4A11700A4A203A82F8A0
:100FE0002010012802D0042808D103E00121054A7D
:100FF000117004E00521034A117000E000BF00BF3A
:10100000704700002010024001490860704700004E
:101010003C0442420249096A0143014A1162704795
:1010200000100240024909888143014A118070473B
:10103000042800400348008840F01000014908805F
:101040007047000004280040034800884FF6EF7105
:1010500008400149088070470428004070B5002608
:101060000024002500F07AF806463848B6FBF0F474
:1010700037480088A0423CD035490C8040F2B27518
:1010800010E02846FFF7E8FC40B1B4F5B77F02D383
:10109000A4F5B77404E0681C85B206E0A4F26D14F0
:1010A000681C85B2B4F5B67FEBD800BF29488580AF
:1010B000002516E027498888FFF7CEFC30B1012DC6
:1010C00004D11D2C01D31D3C09E00CE02248405DF9
:1010D000A04203D82048405D241A00E003E0681CC9
:1010E00085B21C2CE6D200BF681C1A498871601CAE
:1010F000C8711648B6FBF0F100FB11644FF4616053
:10110000B4FBF0F0134908704FF46160B4FBF0F1E8
:1011100000FB11403C21B0FBF1F00E4948704FF448
:101120006160B4FBF0F100FB11403C21B0FBF1F237
:1011300001FB1200074988700B46DA799979988883
:1011400000F028F803490872002070BD80510100AA
:10115000F8000020F8050020482A00080021034874
:101160000188001F008841EA004070471C280040A9
:1011700001460020064A12880A40D0B2044A121FD3
:1011800012880A4012B108B1012000E00020704727
:1011900004280040F0B503460C461546642093FB36
:1011A000F0F0C6B2642093FBF0F700FB1730C1B239
:1011B000132E02DD01F16400C1B20846CF1701EB26
:1011C000977701EBA707BAB2072092FBF0F700FB75
:1011D000172082B25719601EDFF82CC01CF80000DF
:1011E000384482B2CF1701EB9777BF10A1EB870786
:1011F0001FB9032C01DA501E82B2072092FBF0F7D0
:1012000000FB1720C0B2F0BD3C2A000810B5012039
:10121000FFF7AEFF08B1FFF721FF0220FFF7A8FF9D
:1012200020B10220FFF7FEFEFFF718FF0520FFF7B1
:10123000F9FE00F003F910BD29B1064A12880243F5
:10124000044B1A8004E0034A12888243014B1A803F
:1012500070470000002800401CB5002401214FF019
:10126000C050FFF7E9FD0120FFF7CEFD0420FFF796
:10127000E7F845F2500188423FD0FFF7D9F8012046
:10128000FFF7A8FE04E0601CC4B20A2000F060FD75
:101290004120FFF781FE08B9FA2CF4DBFA2C01DBC0
:1012A00001201CBD4FF48070FFF7B4FE0120FFF752
:1012B000ABFE00F0C3F800F0CBF801210846FFF7C1
:1012C000BBFF00F0BBF8FFF7B5FE47F6FF7000F07C
:1012D000A5F800F0B3F80020009009230F220B219D
:1012E000019040F2E27000F027F8FFF7ADFE45F202
:1012F00050010420FFF7B2F807E000F0A9F801213F
:101300000846FFF799FF00F099F800F004F8FFF79E
:10131000A5FE0020C5E708B503208DF800000020D9
:101320008DF801008DF8020001208DF80300684659
:10133000FFF7B2FB08BD00002DE9F05F06460F463F
:1013400090469946DDE90AAB002440F2B27086422D
:1013500003DB40F63300864202DD0120BDE8F09F4A
:1013600040F2B2750AE02846FFF776FB10B120483C
:10137000044401E01F480444681C85B2B542F2DB16
:10138000781EC7B2002510E01B48405D40F2A32143
:10139000484304EBC0143046FFF75EFB18B1012D43
:1013A00001D116480444681C85B2BD42ECDBA8F1AB
:1013B000010040F2A321484304EBC014C9EB4910DB
:1013C000C0EB092004EB0014CAEB0A1004EB800404
:1013D0005C4401214FF0C050FFF72EFD0120FFF7C4
:1013E00013FD204600F00CF800F028F80020B5E7C7
:1013F0000085E2018033E101482A000880510100A4
:1014000000B50246FFF716FE100C03490880091DBF
:101410000A80FFF719FE00BD1828004000B50246FB
:10142000FFF708FEC2F3034003490880091D0A8044
:10143000FFF70AFE00BD00000828004000BF034877
:10144000008800F020000028F9D0704704280040F0
:10145000074800884FF6F77108400549088000BF2B
:101460000348008800F008000028F9D07047000009
:1014700004280040704710B500F002F810BD0000CD
:101480000CB50020019000903348006840F4803093
:101490003149086000BF3048006800F40030009017
:1014A0000198401C0190009818B90198B0F5A06F00
:1014B000F1D12948006800F4003010B101200090FB
:1014C00001E0002000900098012843D123480068E3
:1014D00040F01000214908600846006820F0030031
:1014E00008600846006840F0020008601A4840683A
:1014F000194948600846406848600846406840F41A
:10150000806048600846406820F47C1048600846C7
:10151000406840F4E81048600846006840F0807079
:10152000086000BF0C48006800F000700028F9D087
:101530000948406820F003000749486008464068B1
:1015400040F00200486000BF0348406800F00C0013
:101550000828F9D10CBD0000001002400020024014
:10156000042808D14FF0E021096941F004014FF04F
:10157000E022116107E04FF0E021096921F0040148
:101580004FF0E022116170477047000010B513481A
:10159000006840F0010011490860084640681049A1
:1015A00008400E494860084600680E4908400B494B
:1015B00008600846006820F48020086008464068FB
:1015C00020F4FE0048604FF41F008860FFF753FFCF
:1015D0004FF000600449086010BD00000010024098
:1015E0000000FFF8FFFFF6FE08ED00E010B5012156
:1015F000684800F045F900287DD00121654800F0D9
:1016000027F965480088401C63490880084600881F
:1016100040F6B831884210DD00205F4908805F48FD
:10162000007850B95E480078401C5D490870084653
:101630000078032801DD012008705A480088401C0A
:10164000584908800846008832281CDD00200880A0
:1016500055480078401C5449087008460078062810
:1016600001DD0020087050480078042805DA4E4853
:101670000078401C4D49087005E04B480078C0F1E7
:1016800007004A4908704A480088401C48490880B9
:10169000084600884549097888420DDD0020444904
:1016A000088044480078401C424908700846007889
:1016B000182801DB002008703F480088401C3E4984
:1016C0000880084600880A281CDD002008803B4866
:1016D0000078401C3949087008460078802801DDF0
:1016E0000020087035480078402805DC3348007831
:1016F0003349087006E04BE030480078C0F18000C4
:101700002F4908702F480088401C2E490880084641
:101710000088142826DD002008802B480078401C13
:10172000294908700846007818280CDD0020087048
:1017300026480078401C254908700846007804288F
:1017400001DD0120087020480078C0F11800204910
:101750000870084600780C2804DB08460078C0F1C1
:10176000180008701B480078401C1A490870084689
:10177000007801280CDD0020087017480088801CC4
:101780001549088008460088FF2801DD00200880F0
:1017900010BD000000040040C4000020EC00002048
:1017A000C6000020D4000020D6000020D700002072
:1017B000D8000020DA000020DC000020DE0000203D
:1017C000DF000020C8000020CA000020CC0000205C
:1017D000CB000020CE000020D00000207FB50546C1
:1017E0000C4601210220FFF727FBADF80850ADF8A9
:1017F00004400020ADF80A00ADF8060001A90D482C
:1018000000F0AEF8012211460A4800F04AF81D2007
:101810008DF8000003208DF801008DF802000120F2
:101820008DF803006846FFF737F90121014800F001
:1018300012F87FBD0004004021B1028842F080020E
:10184000028004E002884FF67F731A4002807047DE
:10185000CA430282704721B1028842F0010202802D
:1018600004E002884FF6FE731A40028070471AB1F6
:1018700083890B43838102E083898B438381704793
:1018800030B50246002000230024158A05EA010332
:10189000958905EA010413B10CB1012000E0002094
:1018A00030BD1AB183890B43838102E083898B4366
:1018B0008381704770B5002400220023058C4FF609
:1018C000FE7635400584028C8388048B4FF68F7535
:1018D0002C40B51E2C400D882C43751E2A400D89C6
:1018E0002A434D882A43144DA8420BD0134DA842D9
:1018F00008D0134DA84205D0124DA84202D0124D77
:10190000A84213D14FF6F7752A404D892A434FF666
:10191000FB752A408D882A434FF6FF652B404FF612
:10192000FF552B408D892B43CD892B438380048326
:10193000CD888586028470BD002C014000340140B2
:101940000040014000440140004801400A46002197
:10195000018B4FF6F7731940114301837047000064
:10196000002202881D4B98420ED01D4B98420BD08E
:10197000B0F1804F08D01B4B984205D01A4B9842CB
:1019800002D01A4B984204D14FF68F731A404B88FD
:101990001A43174B984207D0164B984204D04FF683
:1019A000FF431A40CB881A4302808B8883850B88BB
:1019B00003850A4B98420BD0094B984208D00E4B36
:1019C000984205D00D4B984202D00D4B984201D160
:1019D0000B7A03860123838270470000002C0140AC
:1019E000003401400004004000080040000C0040AA
:1019F000001000400014004000400140004401403D
:101A00000048014010B540F22551044800F0AEF8FE
:101A100018B1024800F066F9C4B210BD00380140A8
:101A200010B540F225511F4800F0A0F8002837D02B
:101A30001C4800F057F9C4B2012C0AD11A480078AA
:101A4000401C19490870084600780E2801DB002068
:101A50000870022C0AD1154800780A301349087022
:101A600008460078F92801DD00200870032C0AD10F
:101A70000F4800780A300E49087008460078F928A7
:101A800001DD00200870042C0AD10A4800780A30D1
:101A90000849087008460078F92801DD0020087020
:101AA00010BD000000440040FD000020FA000020AE
:101AB000FB000020FC00002021B1828942F400528A
:101AC000828104E082894DF6FF731A40828170475B
:101AD00010B504462048844209D101218803FFF74C
:101AE000DBF900214FF48040FFF7D6F932E01B48C4
:101AF000844209D101214804FFF7AEF900214FF4D7
:101B00000030FFF7A9F925E01548844209D10121E9
:101B10008804FFF7A1F900214FF48020FFF79CF91A
:101B200018E01048844209D10121C804FFF794F954
:101B300000214FF40020FFF78FF90BE00A488442A0
:101B400008D101210805FFF787F900214FF4801023
:101B5000FFF782F910BD000000380140004400404A
:101B600000480040004C00400050004070B5024664
:101B7000002400230025002040F66A16B14200D15F
:101B800000BFC1F3421501F01F03012606FA03F35B
:101B9000012D02D19689334006E0022D02D1168A2A
:101BA000334001E0968A33400C12012606FA04F411
:101BB0001688344013B10CB1012000E0002070BD44
:101BC000F0B50346002400260025002040F66A17E1
:101BD000B94200D100BF1846C1F3421401F01F06FC
:101BE000012707FA06F5012C01D10C3004E0022C84
:101BF00001D1103000E014301AB107682F4307609C
:101C000002E00768AF430760F0BD00002DE9F04730
:101C100086B005460E460024A24600BFA146002716
:101C2000B08900B100BF2F462C8A4CF6FF700440EB
:101C3000F08804432C82AC894EF6F3100440B0883F
:101C400031890843718908430443AC81AC8A4FF65B
:101C5000FF400440B0890443AC8201A8FFF732F989
:101C60001F48874202D1DDF810A001E0DDF80CA08A
:101C7000A88900F4004040B10AEBCA0000EB0A104A
:101C800031684900B0FBF1F807E00AEBCA0000EB4D
:101C90000A1031688900B0FBF1F86420B8FBF0F05D
:101CA00004012009642101FB1089A88900F4004087
:101CB00040B1322000EBC900B0FBF1F000F00700AA
:101CC000044308E0322000EB09106421B0FBF1F07E
:101CD00000F00F0004432C8106B0BDE8F08700003F
:101CE0000038014001468888C0F30800704700BFF3
:101CF000FEE710B5044621460020FEF767FE10BD42
:101D000010B5044621464020FEF760FE10BD00BF1E
:101D10007047000010B504466FF00400FFF720FC88
:101D2000E11704EB5171C1F3C701074A1170104666
:101D3000007800EB4001C1EBC0104FF6FF7101EAE3
:101D4000C0000249088010BDFE00002000010020F4
:101D500001460D4A12884A434FF0E0235A6100229F
:101D60009A6101221A6100BF4FF0E022106900F071
:101D700001021AB100F48032002AF5D000224FF09F
:101D8000E0231A619A6170470001002010B54FF4FA
:101D900080514348FEF7F4FCD8B90A20FFF7D8FF7A
:101DA0004FF480513E48FEF7EBFC90B93D48007877
:101DB000401C3C490870084600780E2801DB0020D2
:101DC000087000BF4FF480513548FEF7D9FC002859
:101DD000F8D04FF400513248FEF7D2FCD8B90A20AF
:101DE000FFF7B6FF4FF400512D48FEF7C9FC90B93C
:101DF0002D4800780A302C49087008460078F928E8
:101E000001DD0020087000BF4FF400512448FEF7A8
:101E1000B7FC0028F8D04FF480412148FEF7B0FC11
:101E2000D8B90A20FFF794FF4FF480411C48FEF711
:101E3000A7FC90B91D4800780A301C490870084674
:101E40000078F92801DD0020087000BF4FF48041C0
:101E50001348FEF795FC0028F8D04FF400411048D5
:101E6000FEF78EFCD8B90A20FFF772FF4FF400414D
:101E70000B48FEF785FC90B90D4800780A300C49F4
:101E8000087008460078F92801DD0020087000BFBE
:101E90004FF400410248FEF773FC0028F8D010BD53
:101EA000000C0140FD000020FA000020FB00002093
:101EB000FC00002008B501210820FEF7DDFF4820C6
:101EC0008DF8030003208DF802004FF47040ADF848
:101ED000000069460148FEF7C8FB08BD000C014040
:101EE0001CB5FFF753FB4820FFF714FF5920FEF7FE
:101EF00011FF00F00BF94FF47A70FFF729FF41F65C
:101F00001F416320FFF76AFCFEF766FCFEF71EFE2A
:101F1000FFF7A2F9012006210E230322CDE90010CC
:101F200001464FF4FD60FFF707FA4FF4165000F03A
:101F300097F8FFF7BFFFFF20FEF7EBFD4FF47A7035
:101F4000FFF706FF0020FEF7E4FD61E0FFF71EFF4C
:101F500030488078A04223D02E488478C079009001
:101F60002C48837982882CA12E48FEF733F902236E
:101F70002C4A00212020FEF757FE0A20FFF7E8FE3A
:101F800024488078009023484378027822A126488C
:101F9000FEF720F90223244A19462820FEF744FEC2
:101FA000224800780090224803782248027822A133
:101FB0002548FEF70FF90223234A04210020FEF7EB
:101FC00033FE22480078420021A12448FEF702F99E
:101FD0000223224A06210020FEF726FE134802783B
:101FE000134801781348007800F0AAF806463146F5
:101FF0001648007800F0AAF800F0EEF8642095FB8F
:10200000F0F100FB115008B9FEF77EFD681CC5B267
:102010009CE70000F805002025642D25642D25642B
:10202000000000001206002002060020FC00002034
:10203000FB000020FA000020523A256420473A2590
:102040006420423A2564000022060020FD000020A2
:102050004C45445F6E756D3A2564000042060020D1
:1020600010B586B0044601210420FEF705FF0121CA
:102070004804FEF7E1FE2348FFF72AFD0420ADF8EF
:10208000140003208DF8160018208DF8170005A9FC
:102090001D48FEF7EAFA0820ADF8140004208DF878
:1020A000170005A91848FEF7E0FA26208DF8000071
:1020B00000208DF8010002208DF8020001208DF82B
:1020C00003006846FEF7E8FC01940020ADF8080024
:1020D000ADF80A00ADF80C00ADF810000C20ADF81A
:1020E0000E0001A90748FFF791FD012240F225519A
:1020F0000448FFF765FD01210248FFF7DDFC06B04B
:1021000010BD0000004400400008014070B50024EC
:102110000FE0002509E0192004EB4401074A02EB17
:10212000011121F81500681CC5B2182DF3DB601CE5
:1021300084B2182CEDDB00F04FF870BD18010020C0
:102140000346080440EA032010437047F0B50246F6
:102150000B4600203BE0002121E003FA00F505F4E6
:1021600000050DB1332500E0192501EB4106194F9B
:1021700007EB061626F8105003FA00F505F40005E3
:102180000DB1332500E01925C1F1170606EB46060F
:10219000104F07EB061626F810504D1CE9B291427D
:1021A00001DA0C2AD9DDD4B209E0192504EB440682
:1021B000084F07EB061626F81050651CECB2C2F16A
:1021C0001805A54201DD0C2AEFDD451CE8B21828F0
:1021D000C1DBF0BD1801002010B54FF41C710F4891
:1021E000FEF740FA01210D48FEF756F901210C488F
:1021F000FFF731FB00BF4FF40030FEF7FFF9012875
:10220000F9D100210548FEF747F94FF40030FEF7F9
:1022100035F900210248FFF71EFB10BD58000240AF
:10222000000800400000000000000000002F000037
:1022300000000700070000147F147F1400242A7F89
:102240002A12006264081323003649552250000008
:102250000503000000001C224100000041221C0078
:102260000014083E08140008083E0808000000A0FA
:1022700060000008080808080000606000000020F6
:1022800010080402003E5149453E0000427F4000D4
:10229000004261514946002141454B31001814125A
:1022A0007F10002745454539003C4A494930000127
:1022B0007109050300364949493600064949291E76
:1022C00000003636000000005636000000081422D8
:1022D00041000014141414140000412214080002D8
:1022E0000151090600324959513E007C1211127CFD
:1022F000007F49494936003E41414122007F41412A
:10230000221C007F49494941007F09090901003E1B
:102310004149497A007F0808087F0000417F410059
:10232000002040413F01007F08142241007F4040CF
:102330004040007F020C027F007F0408107F003EB7
:102340004141413E007F09090906003E4151215E9D
:10235000007F091929460046494949310001017F9A
:102360000101003F4040403F001F2040201F003F30
:102370004038403F006314081463000708700807E2
:1023800000615149454300007F41410000552A55F5
:102390002A55000041417F00000402010204004070
:1023A0004040404000000102040000205454547892
:1023B000007F4844443800384444442000384444B2
:1023C000487F00385454541800087E090102001850
:1023D000A4A4A47C007F080404780000447D40008D
:1023E000004080847D00007F102844000000417F71
:1023F0004000007C04180478007C0804047800384D
:102400004444443800FC242424180018242418FCD4
:10241000007C0804040800485454542000043F443D
:102420004020003C4040207C001C2040201C003C00
:102430004030403C004428102844001CA0A0A07C50
:10244000004464544C441414141414140000000088
:10245000000000000000000000000000000000F884
:1024600000000000000000333000000000100C06E7
:10247000100C0600000000000000000040C0784082
:10248000C0784000043F04043F040400007088FC4E
:1024900008300000001820FF211E0000F008F000A6
:1024A000E018000000211C031E211E0000F0088817
:1024B000700000001E2123241927211010160E0081
:1024C000000000000000000000000000000000E02C
:1024D0001804020000000007182040000002041841
:1024E000E00000000040201807000000404080F09D
:1024F000804040000202010F01020200000000F0D3
:10250000000000000101011F0101010000000000A6
:102510000000000080B0700000000000000000001B
:1025200000000000000101010101010100000000A4
:10253000000000000030300000000000000000003B
:1025400080601804006018060100000000E0100818
:102550000810E000000F102020100F00001010F8ED
:10256000000000000020203F20200000007008082C
:1025700008887000003028242221300000300888AC
:10258000884830000018202020110E000000C020D4
:1025900010F8000000070424243F240000F80888F5
:1025A000880808000019212020110E0000E0108882
:1025B00088180000000F112020110E0000380808B4
:1025C000C83808000000003F0000000000708808C4
:1025D00008887000001C222121221C0000E0100845
:1025E0000810E0000000312222110F00000000C09E
:1025F000C00000000000003030000000000000803B
:10260000000000000000806000000000000080402A
:102610002010080000010204081020004040404043
:102620004040400004040404040404000008102096
:1026300040800000002010080402010000704808DB
:102640000808F0000000003036010000C030C82843
:10265000E810E0000718272423140B000000C038FE
:10266000E0000000203C23020227382008F8888878
:1026700088700000203F202020110E00C030080884
:1026800008083800071820202010080008F808085B
:102690000810E000203F202020100F0008F8888854
:1026A000E8081000203F20202320180008F8888820
:1026B000E8081000203F200003000000C030080898
:1026C0000838000007182020221E020008F8080021
:1026D0000008F808203F210101213F20000808F8E8
:1026E000080800000020203F20200000000008080B
:1026F000F8080800C08080807F00000008F888C0CB
:1027000028180800203F20012638200008F808007B
:1027100000000000203F20202020300008F8F800B2
:10272000F8F80800203F003F003F200008F830C0C4
:102730000008F808203F200007183F00E0100808B4
:102740000810E0000F10202020100F0008F80808E3
:102750000808F000203F210101010000E0100808F6
:102760000810E0000F18242438504F0008F888881B
:1027700088887000203F2000030C302000708808FB
:10278000080838000038202121221C00180808F809
:10279000080818000000203F2000000008F808008A
:1027A0000008F808001F202020201F00087888005B
:1027B00000C83808000007380E010000F80800F8CB
:1027C0000008F800033C0700073C03000818688075
:1027D0008068180820302C03032C30200838C800EB
:1027E000C83808000000203F20000000100808083A
:1027F000C83808002038262120201800000000FEDC
:10280000020202000000007F40404000000C30C087
:1028100000000000000000010638C00000020202B3
:10282000FE000000004040407F0000000000040265
:102830000202040000000000000000000000000090
:102840000000000080808080808080800002020480
:102850000000000000000000000000000000808078
:10286000808000000019242222223F2008F80080E6
:1028700080000000003F112020110E0000000080A9
:1028800080800000000E1120202011000000008038
:102890008088F800000E112020103F20000080806A
:1028A00080800000001F222222221300008080F07E
:1028B000888888180020203F2020000000008080A9
:1028C00080808000006B94949493600008F80080EE
:1028D00080800000203F210000203F200080989849
:1028E000000000000020203F2020000000000080A9
:1028F0009898000000C08080807F000008F80000E9
:1029000080808000203F24022D302000000808F83D
:10291000000000000020203F2020000080808080F8
:1029200080808000203F20003F20003F808000808A
:1029300080800000203F210000203F200000808098
:1029400080800000001F202020201F008080008049
:102950008000000080FFA12020110E0000000080F8
:1029600080808000000E112020A0FF8080808000E9
:102970008080800020203F21200001000000808016
:10298000808080000033242424241900008080E00B
:10299000808000000000001F2020000080800000D8
:1029A00000808000001F202020103F2080808000B9
:1029B0000080808000010E300806010080800080C9
:1029C000008080800F300C030C300F0000808000EE
:1029D000808080000020312E0E3120008080800019
:1029E0000080808080818E701806010000808080C9
:1029F000808080000021302C222130000000000067
:102A0000807C020200000000003F40400000000007
:102A1000FF00000000000000FF0000000002027C38
:102A2000800000000040403F00000000000601015F
:102A3000020204040000000000000000000303067E
:102A400001040602050003051F1C1F1E1F1E1F1F79
:102A50001E1F1E1F742A000800000020180100001D
:102A6000280100088C2B000818010020B00B000082
:102A700044010008FFFFFFFFFFFFFFFFFFFFFFFF15
:102A8000FFF0DCC8B4A08C7864503C28140000002F
:102A90000000000000000000000000000000000036
:102AA00000000000000000000014283C5064788CF6
:102AB000A0B4C8DCF000000000000000000000002E
:102AC0000000000000000000000000000000000006
:102AD00014283C5064788CA0B4C8DCF0FFFFFFFFE2
:102AE000FFFFFFFFFFFFFFFFFFFFFFFFFFFFFFFFF6
:102AF000FFFFFFFFFFFF0014283C5064788CA0B458
:102B0000C8DCF0FFFFFFFFFFFFFFFFFFFFFFFFFF3E
:102B1000FFFFFFFFFFFFFFFFFFFFFFFFFFF0DCC82E
:102B2000B4A08C7864503C28140000000000000021
:102B30000000000000000000000001000000000094
:102B400001010000FF0000000000000A000000007A
:102B50000000000000000000000000000000000075
:102B60000000000000000000000000000000323201
:102B70003201000000000000000001020304010215
:0C2B800003040607080902040608000010
:04000005080000ED02
:00000001FF
